:040000008A157E29B6
:06000600000000000800EC
:0E000C00213083120313FD00FD0B0A280800AB
:10001A000F3083120313FC004730FD00FD0B132839
:0A002A00FC0B132800000000080082
:1000340083120317B91B21280313881323280313DE
:1000440088170317391B2928031308132B280313B4
:1000540008170317B91A3128031388123328031316
:1000640088160317391A3928031308123B28031377
:1000740008166F183F280815402808118815032012
:1000840088110317B9194928031388134B2803133C
:100094008817031739195128031308135328031316
:1000A40008170317B9185928031388125B28031378
:1000B40088160317391861280313081263280313D9
:1000C40008166F1867280815682808118815032072
:0E00D40088116F1C6F280D2070280620080070
:1000E20083120313FB01FA01F9018030F800F10CCD
:1000F200F00C031C85287408F90775080318750F9E
:10010200FA070318FB0A0310F01F8D287408FA0778
:1001120075080318750FFB07FB0CFA0CF90CF80CA9
:10012200031C78287B08F3007A08F2007908F100B2
:060132007808F00008004F
:10013800831603131208013EF000F1010318F10AB7
:10014800831203173508F400F50171200630F20018
:100158007008F4007108F50072080319B828F50C46
:10016800F40CF513FF3EB1280430F1007408F000D8
:1001780071080319C328F00D7010FF3EBD283030F8
:100188007005F3007408F0007508F100F10CF00C2C
:10019800F113F10CF00CF113700895000F3097056E
:0601A80073089704080033
:1001AE0083120313F801F9011030FC00710DF80DE4
:1001BE00F90D7408F8027508031C750FF90203187F
:1001CE00EF287408F80775080318750FF907031060
:0A01DE00F00DF10DFC0BDD28080008
:1001E800831603130711831212150C3097040800A5
:1001F800831203136F1003173508B9001A206F1400
:020208000800EC
:10020A0083160313071583121211F030970508009D
:0C021A00831203139501171297120800BD
:100226002529803083120317B5003829C030B50060
:1002360038299430B5003829D430B50038298030B3
:10024600B5003829831203173508013A0319142912
:100256003508023A031919293508033A03191C29E6
:100266003508043A03191F2922293603F0003508F8
:10027600F0077008B50003136F1470080317B90070
:100286001A206F1003173708B9001A206F140800D8
:10029600831203132230FC00F801F901FA01FB0175
:1002A600FC03031981290310FB0CFA0CF90CF80C5A
:1002B600F30CF20CF10CF00C031C5329FC0303198C
:1002C60073297408F80775080318750FF907760877
:1002D6000318760FFA0777080318770FFB075729D5
:1002E6007408F80775080318750FF90776080318D8
:0E02F600760FFA0777080318770FFB0708004A
:0E030400831603136E088A006D08820008003D
:10031200710DF80DF90D7408F8027508031C750FBC
:10032200F902F00DF10D0F30FC00710DF80DF90D11
:100332007408701CA229F8027508031C750FF902D3
:10034200A729F80775080318750FF907F00DF10DC5
:10035200FC0B96297018B3297408F807750803185E
:08036200750FF9070000080007
:10036A008312031735089D0036089E009F01A001DD
:0A037A00013083160313EF000800A2
:10038400831203137408003A031DD1297508003A37
:10039400031DD129FF30F0007F30F1002A2A831297
:1003A4000313FD01F901F801710870040319003405
:1003B40071087506FA00FA1BFD09FB01F51FE72910
:1003C400F409F509F40A0319F50AF11FEE29F009F5
:1003D400F109F00A0319F10A71087504FA00FA1B0D
:1003E400032A89217B18162AFD1F0034F009F1091C
:1003F400F00A0319F10AF809F909F80A0319F90AC4
:100404000034F51F122AF11B0E2A7108F900700836
:10041400F800F101F001F629F101F001F00A0034CD
:10042400F109F009FB0AF329F80A0319F90A740817
:100434007802031DF62975087902031DF629F901CE
:10044400F801F00A0319F10AF11FF6290000FF343C
:0204540008009E
:100456008312031312149214F930831692000D219D
:0C046600F42040300317B5009C20080073
:100472004B2A803083120317B0005E2AC030B000CE
:100482005E2A9430B0005E2AD430B0005E2A8030FA
:10049200B0005E2A831203173008013A03193A2A80
:1004A2003008023A03193F2A3008033A0319422A54
:1004B2003008043A0319452A482A3103F00030086B
:1004C200F0077008B0007008B9001A206F10031707
:1004D200B30133083207840000080319792A33086C
:1004E200320784000008B500FC200317B30A6A2A09
:0604F20003136F14080063
:1004F800483083120317B9001A200317B2013208D3
:10050800073C031C9E2A32083E3EF0000A300318BE
:10051800013EF100700883160313ED007108EE0028
:1005280082218A110A1283120317B500FC200317CF
:10053800B20A832A0230B9001A2003173008B5001E
:0C0548003108B6000130B7001321080094
:10055400583083120317B9001A200317B201320866
:10056400073C031CCC2A3208ED3EF0000730031888
:10057400013EF100700883160313ED007108EE00CC
:1005840082218A110A1283120317B500FC20031773
:10059400B20AB12A0230B9001A2003173008B50094
:0C05A4003108B6000330B7001321080036
:0405B0000521080019
:1005B400803083120313F000803083166C067002BF
:1005C400031DE62A6B080A3C031CF42A0330FB00D3
:1005D4000830FC007730FD00FD0BEE2AFC0BEE2A00
:1005E400FB0BEE2A8030F00080306C067002031D95
:1005F400FD2A6B080A3C0318162B80306C06F000A9
:1006040080307002031D082B14306B020318162B64
:100614000230FB008630FC009930FD00FD0B102BEE
:10062400FC0B102BFB0B102B80306C06F000803081
:100634007002031D1F2B14306B02031C362B8030F9
:100644006C06F00080307002031D2A2B1E306B02F2
:100654000318362BD030FC00C930FD00FD0B302BC5
:10066400FC0B302B0000000080306C06F000803062
:100674007002031D3F2B1E306B02031C552B803070
:100684006C06F00080307002031D4A2B32306B027E
:100694000318552BB630FC00D030FD00FD0B502B59
:1006A400FC0B502B000080306C06F0008030700290
:1006B400031D5E2B32306B02031C732B80306C06DF
:1006C400F00080307002031D692B64306B02031844
:1006D400732B9C30FC00D730FD00FD0B6F2BFC0B03
:1006E4006F2B80306C06F00080307002031D7C2B71
:1006F40064306B020318882B8230FC00DD30FD006F
:0E070400FD0B822BFC0B822B00000000080076
:1007120083120317B001B201B3011030B4000430E8
:1007220033020318B72BF030860034098316031303
:100732008600032003200F3083120605F0007008A4
:100742000317B10070080319B12B3208B000310849
:100752000319AF2BB10CB113B00AA82B0430B300AC
:10076200B40D34100430B207B30A902B3008F000F5
:0207720008007D
:10077400403083120317B9001A200317B20132085C
:10078400073C031CCB2B0230B9001A200317B20A12
:10079400C12B3008B5003108B600B7011321080099
:1007A400583083120317B9001A200317B201320814
:1007B400073C031CF42B3208F53EF0000730031805
:1007C400013EF100700883160313ED007108EE007A
:1007D40082218A110A1283120317B500FC20031721
:1007E400B20AD92B0230B9001A2003173008B50019
:0C07F4003108B6000330B70013210800E4
:10080000831603136F08031D0C2C0130831203178A
:10081000B5000030B600B521831203171D08F000A3
:100820001E08F1001F08F2002008F3006D30F400EC
:100830004E30F500C630F6004130F7004B2139301C
:10084000F5003030F600F701F8017008F50771087F
:100850000318710FF60772080318720FF707730871
:100860000318730FF8077708F0007808F1000030DC
:10087000F81BFF30F300FF30F0057F30F10500304A
:10088000F205F305700803179D0071089E007208B9
:080890009F007308A00008009E
:10089800403083120317B9001A200317B201320837
:1008A800073C031C5D2C0230B9001A200317B20A5A
:1008B800532C3008B5003108B600B70113210800E1
:1008C80083120317B301053033020318722C33085F
:1008D8003207840020308000B30A672C33083207BF
:1008E80084008001B30333083207B4000A30F400EF
:1008F800F5013008F0003108F100D7207808F00041
:100908007908F1003030F0070317340884007008C4
:1009180080000A30F400F5013008F0003108F100D9
:10092800D72070080317B0007108B10000307106B5
:10093800031DA02C00307006031DA32CA52CB303A7
:04094800772C080000
:10094C0083120313121492149C30831692000D21FF
:0C095C00F42080300317B5009C20080038
:10096800063083120313FD00FD0BB82C00000800AD
:1009780083120317AC01AD012708AE002808AF00A9
:1009880080302806F00080307002031DCD2C003026
:1009980027020318DB2C0130AC000030AD0027081B
:1009A800003CAE002808031C013EAF01AF022E0830
:1009B800B0002F08B1002908B20064240630AA004C
:1009C8000030AB002B08003C031DEC2C2A08003C2F
:1009D8000318072D2A082907F20001302A02F0001F
:1009E8000030031C013E2B02F10070082907840027
:1009F8000008F00072088400700880000130AA0224
:100A0800031CAB03E62C29088400203080002C0846
:100A18002D040319252DAA01AB012A0829078400F2
:100A28000008203A031D1C2DAA0A0319AB0A112D30
:100A38000130AA02031CAB032A08290784002D30C1
:040A48008000080022
:100A4C00403083120317B9001A200317A901290893
:100A5C00073C031C482D2908363EF0000A300318C9
:100A6C00013EF100700883160313ED007108EE00CF
:100A7C0082218A110A1283120317B500FC20031776
:100A8C00A90A2D2D0230B9001A2003172708B5002A
:0A0A9C002808B600B7011321080076
:100AA60089237008A70003170F300605F000031905
:0E0AB6005E2DB424562D03172708F00008000B
:100AC400982D013083120317990000309A000030EA
:100AD4001806031D6F2D00301706031D722DA62462
:100AE4000317970A0319980A8030F000803018061B
:100AF4007002031D7F2D1708043C0318832D9701F2
:100B04009801BB2D99019A0197019801BB2D0330DF
:100B1400990000309A00BB2D0230990000309A00F1
:100B2400BB2D1230990000309A00BB2D831203179D
:100B340000302806031DA02D383027060319632D25
:100B440000302806031DA82D353027060319842DEF
:100B540000302806031DB02D343027060319892DD3
:100B640000302806031DB82D3630270603198E2DB4
:100B7400932D1D2E0313B701B8010317B0010313FE
:100B840035080317B1004C2401300317B0000130BD
:100B9400B100D2233F2E03130130B7000030B80058
:100BA40001300317B000031335080317B100BA234B
:100BB40001300317B0000130B100AA223F2E031305
:100BC4000130B502031CB60337080317B000031342
:100BD40035080317B1004C2401300317B00001306D
:100BE400B100D2233F2E0313B50A0319B60A3708FE
:100BF4000317B000031335080317B1004C24013068
:100C04000317B0000130B100D2233F2E1230031776
:100C1400990000309A00031337080317B000031338
:100C240035080317B1004C2401300317B00001301C
:100C3400B100D2233F2E003003171A06031D242EC1
:100C4400013019060319BC2D00301A06031D2C2E81
:100C5400003019060319CD2D00301A06031D342E59
:100C6400023019060319E12D00301A06031D3C2E2B
:100C7400033019060319F52D082E8030831603134B
:100C84006806F00080307002031D4A2E00306702AF
:100C9400031C022F80306806F00080307002031DB0
:100CA400552E0A3067020318022F023083120317ED
:100CB400B00083160313650883120317B1007C2266
:100CC400DA2200306606031D692E02306506031D14
:100CD400782E003083123806031D722E0130370639
:100CE400031D782E8316EB0A0319EC0A83160130D0
:100CF400E502031CE60320308312EE000030831665
:100D04006606031D872E02306506031DD62E0030AD
:100D140083123806031D902E02303706031DD62E8B
:100D24002B220630FB001330FC00AD30FD00FD0B20
:100D3400992EFC0B992EFB0B992E00000000D82253
:100D440001300317B0000130B10003136E0803171C
:100D5400B20039220B30FB002630FC005D30FD0070
:100D6400FD0BB22EFC0BB22EFB0BB22E00000000CA
:100D740002300317B0000130B1003230B200392222
:100D840002300317B0000330B1001030B200392232
:100D94002930FB009630FC007F30FD00FD0BD02E87
:100DA400FC0BD02EFB0BD02E003083166606031DE1
:100DB400DD2E00306506031DFD2E1330E5000030E6
:100DC400E6006908670783120317B5008316031347
:100DD40068080318013E6A0783120317B600B52199
:100DE4000024E830F4000330F500C22170088316B3
:100DF400E7007108E800013083120317B9001A20D4
:020E04000800E4
:100E06008316031388110811081288120813881311
:100E160083128811081188130813881208120D20EE
:100E26000D200D20881608168815032088110D2020
:100E36008815032088110D208815032088110D20A0
:100E460008128815032088110D20881503208811A3
:100E5600881288178815032088110D208813081614
:100E660088150320881108128815032088110D2083
:100E760088150320881108168815032088110D206F
:100E8600081288150320881188170817881608166F
:0C0E96008815032088110D206F1408003F
:100EA20082218A110A128000840AED0A0319EE0ACD
:080EB200F003031D512F08009D
:10100000133083160313E5000030E6008312031744
:10101000A101A20183160313EB01EC010130E700EB
:101020000030E8006A29013083120317B000013054
:10103000B1006330B2008A1139228A158A11532512
:101040008A157008A500A60125082604031913288F
:101050004F283430A1000030A2000130B000013030
:10106000B100A030B2008A1139228A15023003176C
:10107000A7000130A8008A1126258A15023003171F
:10108000B0000230B100B130B2008A1139228A15A5
:101090005F2834300317A1000030A2005F28003021
:1010A0002606031D5528013025060319292800307E
:1010B0002606031D5D2802302506031949288A11DA
:1010C00053258A157008A100A201210822040319E2
:1010D0005F2874283730A1000030A2008316031364
:1010E000E90A0319EA0A7E28003083120317220650
:1010F000031D7C280130210603196A288A11D82291
:101100008A1501300317B0000530B1006B30B20012
:101110008A1139228A1583166B0883120317A700D8
:10112000831603136C0883120317A8001030A9005C
:101130008A11BC248A150130B0000830B10010308B
:10114000B2008A1139228A1512300317A700003025
:10115000A8008A1162258A158A1153258A157008FC
:10116000A100A201210822040319A42800302206AC
:10117000031DBC2805302106031DC5283830A700F3
:101180000030A8008A1162258A15003083120317E7
:101190002206031DCD2806302106031DD628353032
:1011A000A7000030A8008A1162258A15003083123A
:1011B00003172206031DDE2802302106031DE7283F
:1011C0003630A7000030A8008A1162258A15003049
:1011D000831203172206031DEF280A302106031D80
:1011E000F8283430A7000030A8008A1162258A153B
:1011F0000030831203172206031D00290830210640
:10120000031D0B2902300313B5000030B600023075
:10121000B7000030B8007E282F300317A10000303F
:10122000A2000317A301A40180302406F00080303F
:101230007002031D1D290230230203183F290130CB
:10124000B0000130B100BF30B2008A1139228A15D6
:101250001C300317B9008A111A208A150330FB00CD
:101260000830FC007730FD00FD0B3429FC0B3429DD
:10127000FB0B34290317A30A0319A40A14290C3001
:10128000B9008A111A208A1502300317B9008A1191
:101290001A208A15112901300317B9008A111A2062
:1012A0008A1502300317B0000130B1005A30B20085
:1012B0008A1139228A151030FB003930FC000D30BC
:1012C000FD00FD0B6129FC0B6129FB0B612900006E
:1012D00000007D298312003003172606031D7229A2
:1012E0000C3025060319132800302606031D7A2921
:0C12F0000C30250603194B290C290800BE
:1012FC00462283120317A101A201073083160313A0
:10130C0088008A1103278A150C300317B9008A113B
:10131C001A208A150B3003179B0000309C009B0190
:10132C009C010130B0000130B1004630B2008A118E
:10133C0039228A153430FC00F130FD00FD0BA42954
:10134C00FC0BA4290000000002300317B000013090
:10135C00B1003930B2008A1139228A154E30FC00A6
:10136C00EB30FD00FD0BB829FC0BB829013003173D
:10137C00B9008A111A208A1501300317B000013008
:10138C00B1004E30B2008A1139228A156830FC0047
:10139C00E430FD00FD0BD029FC0BD02900008A1194
:1013AC0053258A1570089B009C011B081C0403190B
:1013BC00D5290E2A0C309B0000309C000C30A50067
:1013CC000030A6000020302A0D30831203179B003A
:1013DC0000309C000D30A5000030A6000020302A03
:1013EC001030831203179B0000309C001030A500B6
:1013FC000030A6000020302A0B30831203179B000C
:10140C0000309C000B30A5000030A6000020302AD4
:10141C000030831203171C06031D162A03301B060B
:10142C000319E02900301C06031D1E2A07301B0679
:10143C000319EA2900301C06031D262A10301B064E
:10144C000319F62900301C06031D2E2A0B301B062F
:06145C000319022A302AE8
:10148C0020308400433083120313F0005D30831648
:10149C00ED000730EE008A1151278A15A030840028
:1014AC0011308312F000D4308316ED000730EE00BB
:1014BC008A1151278A156330840008308312F0009A
:1014CC00E5308316ED000730EE008A1151278A159E
:1014DC00B130840034308312F000A0308316ED005C
:1014EC000730EE008A1151278A156B3084000330C7
:1014FC008312F000FD308316ED000730EE008A11E8
:06150C0051278A150800BA
:100EBA005534703473342134213421342034553478
:100ECA002E34553420342034203420342034203435
:040EDA00203400348C
:060EDE0050343D340034E5
:040EE40002340034A0
:040EE800013400349D
:100EEC0041342E3469346E346934743420346A34A9
:0A0EFC007534653467346F34003438
:100F060048346F346C346134613461346134003494
:100F160062342E3420346334723465346434693474
:080F260074346F34733400349D
:100F2E0045346C3469346A3461342E342E342E34A4
:020F3E0000347D
:100F40003C347B34523455344E34213421345234C1
:0C0F500055344E34213421347D340034FB
:100F5C0020344434453449345634493444342C34E4
:100F6C0020344C3445344F342C3420344A344F34F0
:100F7C005334553445342C34203449344E344734AE
:100F8C00203444344534203453344F3446345434B0
:0C0F9C00573441345234453421340034C1
:100FA800503472346534733469346F346E34613458
:100FB800203462346F3474346F346E342E342E34EB
:020FC8000034F3
:100FCA0050347234653473346434733461340034A5
:100FDA001D341C34193402341434003400340034FF
:100FEA001C341D34183402340834003400340034FC
:060FFA004C343D340034CC
:10146C000734173416341F340E340A340F34003456
:10147C000634163416341E341E34063406341F3427
:02400E004A2F37
:00000001FF
